:020000040800F2
:10000000005000204921000899210008992100088A
:10001000992100089921000899210008000000009A
:10002000000000000000000000000000992100080E
:1000300099210008000000009921000849080008E3
:1000400099210008992100089921000899210008A8
:100050009921000899210008992100089921000898
:100060009921000899210008992100089921000888
:100070009921000899210008992100089921000878
:100080009921000899210008992100089921000868
:100090009921000899210008992100089921000858
:1000A0009921000899210008992100089921000848
:1000B000A11F000899210008992100089921000832
:1000C0009921000899210008992100089921000828
:1000D0009921000899210008992100089921000818
:1000E00099210008992100080000000099210008CA
:1000F00099210008992100089921000899210008F8
:1001000099210008992100089921000899210008E7
:1001100099210008992100089921000899210008D7
:1001200099210008992100089921000899210008C7
:1001300010B5054C237833B9044B13B10448AFF321
:1001400000800123237010BD640000200000000027
:10015000E421000808B5034B1BB103490348AFF382
:10016000008008BD0000000068000020E4210008B5
:1001700070B54FF0FF0C4CF4E06C1CEA11541DBF3D
:100180001CEA135594EA0C0F95EA0C0F00F0DEF808
:100190002C4481EA030621EA4C5123EA4C5350EAED
:1001A000013518BF52EA033541F4801143F480133E
:1001B00038D0A0FB02CE4FF00005E1FB02E506F0CF
:1001C0000042E0FB03E54FF00006E1FB03569CF024
:1001D000000F18BF4EF0010EA4F1FF04B6F5007F2A
:1001E00064F5407404D25FEA4E0E6D4146EB06069C
:1001F00042EAC62141EA55514FEAC52040EA5E5025
:100200004FEACE2EB4F1FD0C88BFBCF5E06F1ED8CE
:10021000BEF1004F08BF5FEA500E50F1000041EB05
:10022000045170BD06F0004646EA010140EA0200B2
:1002300081EA0301B4EB5C04C2BFD4EB0C0541EAD4
:10024000045170BD41F480114FF0000E013C00F3E9
:10025000AB8014F1360FDEBF002001F0004170BD0D
:10026000C4F10004203C35DA0C341BDC04F1140426
:10027000C4F1200500FA05F320FA04F001FA05F2B2
:1002800040EA020001F0004221F0004110EBD3707F
:1002900021FA04F642EB06015EEA430E08BF20EAAB
:1002A000D37070BDC4F10C04C4F1200500FA04F34E
:1002B00020FA05F001FA04F240EA020001F00041E0
:1002C00010EBD37041F100015EEA430E08BF20EA53
:1002D000D37070BDC4F1200500FA05F24EEA020E9B
:1002E00020FA04F301FA05F243EA020321FA04F0CA
:1002F00001F0004121FA04F220EA020000EBD37081
:100300005EEA430E08BF20EAD37070BD94F0000F80
:100310000FD101F00046400041EB010111F4801FB4
:1003200008BF013CF7D041EA060195F0000F18BF65
:10033000704703F00046520043EB030313F4801FA1
:1003400008BF013DF7D043EA0603704794EA0C0F5B
:100350000CEA135518BF95EA0C0F0CD050EA410671
:1003600018BF52EA4306D1D181EA030101F00041EE
:100370004FF0000070BD50EA410606BF1046194616
:1003800052EA430619D094EA0C0F02D150EA013622
:1003900013D195EA0C0F05D152EA03361CBF104663
:1003A00019460AD181EA030101F0004141F0FE4102
:1003B00041F470014FF0000070BD41F0FE4141F486
:1003C000780170BD81F0004102E000BF83F000437E
:1003D00030B54FEA41044FEA430594EA050F08BFE0
:1003E00090EA020F1FBF54EA000C55EA020C7FEAA4
:1003F000645C7FEA655C00F0E2804FEA5454D4EB21
:100400005555B8BF6D420CDD2C4480EA020281EAEA
:10041000030382EA000083EA010180EA020281EA22
:100420000303362D88BF30BD11F0004F4FEA013174
:100430004FF4801C4CEA113102D0404261EB410183
:1004400013F0004F4FEA03334CEA133302D0524209
:1004500063EB430394EA050F00F0A780A4F10104C5
:10046000D5F1200E0DDB02FA0EFC22FA05F28018FF
:1004700041F1000103FA0EF2801843FA05F35941E5
:100480000EE0A5F120050EF1200E012A03FA0EFC64
:1004900028BF4CF0020C43FA05F3C01851EBE3718E
:1004A00001F0004507D54FF0000EDCF1000C7EEBAB
:1004B00000006EEB0101B1F5801F1BD3B1F5001FE9
:1004C0000CD349085FEA30004FEA3C0C04F1010408
:1004D0004FEA445212F5800F80F09A80BCF1004F31
:1004E00008BF5FEA500C50F1000041EB045141EAB3
:1004F000050130BD5FEA4C0C404141EB0101013C7C
:1005000028BFB1F5801FE9D291F0000F04BF01466A
:100510000020B1FA81F308BF2033A3F10B03B3F13C
:1005200020020CDA0C3208DD02F1140CC2F10C02CC
:1005300001FA0CF021FA02F10CE002F11402D8BF2A
:10054000C2F1200C01FA02F120FA0CFCDCBF41EAF6
:100550000C019040E41AA2BF01EB0451294330BDC5
:100560006FEA04041F3C1CDA0C340EDC04F11404A2
:10057000C4F1200220FA04F001FA02F340EA030079
:1005800021FA04F345EA030130BDC4F10C04C4F1BF
:10059000200220FA02F001FA04F340EA030029469F
:1005A00030BD21FA04F0294630BD94F0000F83F4E9
:1005B000801306BF81F480110134013D4EE77FEACC
:1005C000645C18BF7FEA655C29D094EA050F08BF18
:1005D00090EA020F05D054EA000C04BF19461046F9
:1005E00030BD91EA030F1EBF0021002030BD5FEA3D
:1005F000545C05D14000494128BF41F0004130BD65
:1006000014F580043CBF01F5801130BD01F00045B8
:1006100045F0FE4141F470014FF0000030BD7FEA2B
:10062000645C1ABF194610467FEA655C1CBF0B4626
:10063000024650EA013406BF52EA033591EA030F3D
:1006400041F4002130BD00BF90F0000F04BF002135
:10065000704730B54FF4806404F132044FF0000568
:100660004FF0000150E700BF90F0000F04BF0021E1
:10067000704730B54FF4806404F1320410F0004547
:1006800048BF40424FF000013EE700BF42004FEA42
:10069000E2014FEA31014FEA02701FBF12F07F43BF
:1006A00093F07F4F81F06051704732F07F4208BF76
:1006B000704793F07F4F04BF41F40021704730B57D
:1006C0004FF4607401F0004521F000411CE700BFC9
:1006D00050EA010208BF704730B54FF000050AE04C
:1006E00050EA010208BF704730B511F0004502D54D
:1006F000404261EB41014FF4806404F132045FEA4F
:10070000915C3FF4D8AE4FF003025FEADC0C18BFF7
:1007100003325FEADC0C18BF033202EBDC02C2F1E9
:10072000200300FA03FC20FA02F001FA03FE40EA7B
:100730000E0021FA02F11444BDE600BF4A0011D2B6
:1007400012F5001211D20DD56FF47873B3EB62522B
:100750000ED44FEAC12343F0004343EA505323FA37
:1007600002F070474FF00000704750EA013002D1AC
:100770004FF0FF3070474FF00000704780B485B0F5
:1007800000AF78600123FB737B68002B04D07B688B
:100790005B68B3F1805F02D30023FB7321E0144B4D
:1007A0001B68134A23F001031360114B1B68104AA6
:1007B00023F0020313600E4B1B680D4A23F0040361
:1007C00013600B4B1B687A68127892001146084A36
:1007D0000B431360064B00229A60054A7B685B68F6
:1007E0005360FB7B18461437BD4680BC704700BF82
:1007F00010E000E080B483B000AF7860114A7B68FD
:100800005360104B1B680F4A43F00103136000BF95
:100810000C4B1B681B0C03F00103002BF8D0094B99
:100820001B68084A23F001031360064B4FF0704227
:100830005A60044B00229A6000BF0C37BD4680BC52
:10084000704700BF10E000E080B500AF104B1B7890
:10085000DBB2002B12D10F4B1B680E4A23F00103B1
:1008600013600C4B4FF070425A600A4B00229A60A2
:10087000084B1B68074A23F002031360064B1B68F2
:10088000002B02D0044B1B68984700BF80BD00BFFF
:100890008400002010E000E08000002080B582B0DD
:1008A00000AF78600B467B8013463B803A8879889E
:1008B0003B1D184600F078FA00BF0837BD4680BDE2
:1008C00090B583B000AF0446084611461A46234649
:1008D000FB8003467B710B463B711346FB70FB7834
:1008E000002B02D0012B09D011E00121072000F0DC
:1008F000D3F90021082000F0CFF908E001210820F9
:1009000000F0CAF90021072000F0C6F900BF3A79CB
:100910007979FB88184600F013FF00BF0C37BD46FD
:1009200090BD000080B500AF034801F0BDF803485A
:1009300001F0ACF900BF80BD20000020280000209D
:1009400080B500AF0021002000F0A6F92820FFF7B5
:1009500051FF0121002000F09FF97820FFF74AFFA6
:100960000021002000F098F900BF80BD80B582B062
:1009700000AF7860396001F041F900BF022001F05A
:10098000B1FA0346002BF9D0022001F07BFA0346AE
:100990001A467B681A8001F0F5FA022001F0F0F89F
:1009A0000221012001F00AFA00BF022001F09AFAA8
:1009B0000346002BF9D0022001F064FA03461A46E0
:1009C0003B681A800221002001F0F8F901F0CCFA0E
:1009D000022001F01DF901F011F900BF0837BD46F2
:1009E00080BD00000000000080B584B000AF7860DA
:1009F00039603B681A887B681B88D31AFB81002307
:100A0000BB81FB891846FFF72FFE09A3D3E900231A
:100A1000FFF7AEFB02460B4610461946FFF78EFE67
:100A20000346BB81BB8918461037BD4680BD00BF59
:100A30009CC420B07268813F80B582B000AF0023B3
:100A4000BB8000237B80FFF77BFFBA1C3B1D114658
:100A50001846FFF78BFFBA1C3B1D11461846FFF7DF
:100A6000C3FF0346FB80FB8818460837BD4680BDA0
:100A700080B483B000AF78607B681B781B09DBB261
:100A8000022B00F0AB80022B00F3FB80002B02D086
:100A9000012B55D0F5E07B681B7803F00803DBB22F
:100AA000002B1FD1794B1B687A68127802F00F0275
:100AB00092000F2101FA02F2D2431146734A0B4011
:100AC0001360724B1B687A68527811467A68127804
:100AD00002F00F02920001FA02F211466B4A0B4338
:100AE0001360C9E07B681B7803F00803DBB2002BBE
:100AF00000F0C2807B681B78083BDAB27B681A7012
:100B0000624B5B687A68127802F00F0292000F2144
:100B100001FA02F2D24311465C4A0B4053605B4B30
:100B20005B687A68527811467A68127802F00F0290
:100B3000920001FA02F21146544A0B4353609BE0C3
:100B40007B681B7803F00803DBB2002B1FD1504BEE
:100B50001B687A68127802F00F0292000F2101FAE6
:100B600002F2D24311464A4A0B401360484B1B68BD
:100B70007A68527811467A68127802F00F02920071
:100B800001FA02F21146424A0B43136076E07B6899
:100B90001B7803F00803DBB2002B6FD03C4B5B6883
:100BA0007A68127802F00F0292000F2101FA02F225
:100BB000D2431146364A0B405360354B5B687A6826
:100BC000527811467A68127802F00F02920001FA08
:100BD00002F211462E4A0B4353604FE07B681B78AC
:100BE00003F00803DBB2002B1FD12A4B1B687A6885
:100BF000127802F00F0292000F2101FA02F2D243A2
:100C00001146244A0B401360224B1B687A685278C5
:100C100011467A68127802F00F02920001FA02F28D
:100C200011461C4A0B4313602AE07B681B7803F0D3
:100C30000803DBB2002B23D0164B5B687A6812786E
:100C400002F00F0292000F2101FA02F2D243114684
:100C5000104A0B4053600F4B5B687A68527811461C
:100C60007A68127802F00F02920001FA02F211463D
:100C7000084A0B43536003E000BF02E000BF00E0FE
:100C800000BF00BF0C37BD4680BC70470008014064
:100C9000000C01400010014080B483B000AF034657
:100CA0000A46FB711346BB71FB791B09DBB2022BB1
:100CB00048D0022B6CDC002B02D0012B21D067E046
:100CC000BB79012B0CD1354BDB68FA7902F00F02AE
:100CD000012101FA02F21146304A0B43D36052E07F
:100CE000BB79002B4FD12D4BDB68FA7902F00F0254
:100CF000012101FA02F2D2431146284A0B40D36087
:100D000041E0BB79012B0CD1254BDB68FA7902F06D
:100D10000F02012101FA02F21146214A0B43D3606E
:100D200033E0BB79002B30D11D4BDB68FA7902F040
:100D30000F02012101FA02F2D2431146184A0B4078
:100D4000D36022E0BB79012B0CD1164BDB68FA791A
:100D500002F00F02012101FA02F21146114A0B437F
:100D6000D36014E0BB79002B11D10E4BDB68FA790C
:100D700002F00F02012101FA02F2D2431146094AA0
:100D80000B40D36003E000BF02E000BF00E000BF03
:100D900000BF0C37BD4680BC704700BF0008014053
:100DA000000C01400010014080B483B000AF7860B7
:100DB0000B467B8013463B807B681B78023B032BF2
:100DC00000F2B68401A252F823F000BFDD0D000846
:100DD0009B100008CD120008FB1400087B685B78AC
:100DE000013B032B00F29D8401A252F823F000BFC7
:100DF000010E0008A70E00084D0F0008F30F0008B1
:100E00004FF080439B694FF0804223F003039361CE
:100E10004FF080439B697A689278120111464FF037
:100E200080420B4393614FF080439B694FF08042B7
:100E300043F0080393614FF080431B687A68D278CF
:100E4000120111464FF080420B4313604FF0804374
:100E50001B684FF0804243F0800313604FF08043E3
:100E60001B6A4FF0804243F0010313624FF080424F
:100E70003B88D3624FF080427B8893624FF080437F
:100E800002225A634FF080435B694FF0804243F087
:100E9000010353614FF080431B684FF0804243F0E1
:100EA00001031360F8E04FF080439B694FF08042EC
:100EB00023F4407393614FF080439B697A68927882
:100EC000120311464FF080420B4393614FF0804371
:100ED0009B694FF0804243F4006393614FF080437D
:100EE0001B687A68D278120111464FF080420B439A
:100EF00013604FF080431B684FF0804243F0800343
:100F000013604FF080431B6A4FF0804243F01003A0
:100F100013624FF080423B88D3624FF080427B885F
:100F200093624FF0804302229A634FF080435B69E3
:100F30004FF0804243F0010353614FF080431B6840
:100F40004FF0804243F001031360A5E04FF080436F
:100F5000DB694FF0804223F00303D3614FF08043FD
:100F6000DB697A689278120111464FF080420B4398
:100F7000D3614FF08043DB694FF0804243F00803B8
:100F8000D3614FF080431B687A68D2781201114612
:100F90004FF080420B4313604FF080431B684FF0CB
:100FA000804243F0800313604FF080431B6A4FF090
:100FB000804243F4807313624FF080423B88D362D7
:100FC0004FF080427B8893624FF0804302225A6345
:100FD0004FF080435B694FF0804243F0010353615F
:100FE0004FF080431B684FF0804243F001031360D1
:100FF00052E04FF08043DB694FF0804223F44073AE
:10100000D3614FF08043DB697A689278120311460E
:101010004FF080420B43D3614FF08043DB694FF0C8
:10102000804243F40063D3614FF080431B687A68C9
:10103000D278120111464FF080420B4313604FF0FB
:1010400080431B684FF0804243F0800313604FF0F1
:1010500080431B6A4FF0804243F4805313624FF089
:1010600080423B88D3624FF080427B8893624FF08E
:10107000804302225A634FF080435B694FF0804205
:1010800043F0010353614FF080431B684FF08042EF
:1010900043F00103136000BF43E37B685B78013BCF
:1010A000032B00F2408301A252F823F0BD10000888
:1010B0004B110008CB1100084B1200088C4B9B69A8
:1010C0008B4A23F003039361894B9B697A6892787A
:1010D00012011146864A0B439361854B9B69844AF2
:1010E00043F008039361824B1B687A68D27812013F
:1010F00011467F4A0B4313607D4B1B687C4A43F0CB
:10110000800313607A4B1B6A794A43F00103136230
:10111000774A3B88D3627B883A8802FB03F3013B22
:10112000744A92FBF3F2724B9A62714B00225A633B
:101130006F4B5B696E4A43F0010353616C4B1B6854
:101140006B4A43F001031360BFE0694B9B69684A37
:1011500023F440739361664B9B697A68927812031B
:101160001146634A0B439361614B9B69604A43F4A8
:10117000006393615E4B1B687A68D2781201114656
:101180005B4A0B4313605A4B1B68594A43F0800378
:101190001360574B1B6A564A43F010031362544ABC
:1011A0003B88D362524A7B889362514B02225A6336
:1011B0004F4B5B694E4A43F0010353614C4B1B6834
:1011C0004B4A43F0010313607FE0494BDB69484A17
:1011D00023F00303D361464BDB697A6892781201EE
:1011E0001146434A0B43D361414BDB69404A43F00C
:1011F0000803D3613E4B1B687A68D278120111460E
:101200003B4A0B4313603A4B1B68394A43F0800357
:101210001360374B1B6A364A43F480731362344AB7
:101220003B88D362324A7B889362314B02225A63F5
:101230002F4B5B692E4A43F0010353612C4B1B6813
:101240002B4A43F0010313603FE0294BDB69284A36
:1012500023F44073D361264BDB697A6892781203DA
:101260001146234A0B43D361214BDB69204A43F4E7
:101270000063D3611E4B1B687A68D2781201114655
:101280001B4A0B4313601A4B1B68194A43F0800337
:101290001360174B1B6A164A43F480531362144AB7
:1012A0003B88D362124A7B889362114B02225A63B5
:1012B0000F4B5B690E4A43F0010353610C4B1B68F3
:1012C0000B4A43F00103136000BF2CE27B685B789C
:1012D000013B032B00F2298201A252F823F000BF48
:1012E000F912000879130008F913000879140008AE
:1012F0000004004000127A00884B9B69874A23F063
:1013000003039361854B9B697A68927812011146B9
:10131000824A0B439361814B9B69804A43F00803E7
:1013200093617E4B1B687A68D278120111467B4A22
:101330000B431360794B1B68784A43F080031360BA
:10134000764B1B6A754A43F001031362734A3B886C
:10135000D362724A7B889362704B02225A636F4B4E
:101360005B696E4A43F0010353616C4B1B686B4A27
:1013700043F001031360BFE0684B9B69674A23F4A5
:1013800040739361654B9B697A68927812031146AA
:10139000624A0B439361614B9B69604A43F400636B
:1013A00093615E4B1B687A68D278120111465B4AE2
:1013B0000B431360594B1B68584A43F0800313607A
:1013C000564B1B6A554A43F010031362534A3B883D
:1013D000D362524A7B889362504B02225A634F4B2E
:1013E0005B694E4A43F0010353614C4B1B684B4A07
:1013F00043F0010313607FE0484BDB69474A23F069
:101400000303D361454BDB697A6892781201114678
:10141000424A0B43D361414BDB69404A43F0080326
:10142000D3613E4B1B687A68D278120111463B4A61
:101430000B431360394B1B68384A43F08003136039
:10144000364B1B6A354A43F480731362334A3B8838
:10145000D362324A7B889362304B02225A632F4B0D
:101460005B692E4A43F0010353612C4B1B682B4AE6
:1014700043F0010313603FE0284BDB69274A23F464
:101480004073D361254BDB697A6892781203114669
:10149000224A0B43D361214BDB69204A43F40063AA
:1014A000D3611E4B1B687A68D278120111461B4A21
:1014B0000B431360194B1B68184A43F080031360F9
:1014C000164B1B6A154A43F480531362134A3B8838
:1014D000D362124A7B889362104B02225A630F4BED
:1014E0005B690E4A43F0010353610C4B1B680B4AC6
:1014F00043F00103136000BF17E17B685B78013B99
:10150000032B00F2148101A252F823F021150008E8
:10151000A115000821160008A116000800080040C7
:10152000864B9B69854A23F003039361834B9B6938
:101530007A68927812011146804A0B4393617F4B7F
:101540009B697E4A43F0080393617C4B1B687A6871
:10155000D27812011146794A0B431360774B1B680E
:10156000764A43F080031360744B1B6A734A43F05E
:1015700001031362714A3B88D362704A7B8893628D
:101580006E4B02225A636D4B5B696C4A43F0010358
:1015900053616A4B1B68694A43F001031360BFE063
:1015A000664B9B69654A23F440739361634B9B6967
:1015B0007A68927812031146604A0B4393615F4B3D
:1015C0009B695E4A43F4006393615C4B1B687A68D5
:1015D000D27812011146594A0B431360574B1B68CE
:1015E000564A43F080031360544B1B6A534A43F03E
:1015F00010031362514A3B88D362504A7B8893623E
:101600004E4B02225A634D4B5B694C4A43F0010337
:1016100053614A4B1B68494A43F0010313607FE062
:10162000464BDB69454A23F00303D361434BDB6937
:101630007A68927812011146404A0B43D3613F4BBE
:10164000DB693E4A43F00803D3613C4B1B687A6870
:10165000D27812011146394A0B431360374B1B688D
:10166000364A43F080031360344B1B6A334A43F419
:1016700080731362314A3B88D362304A7B8893621D
:101680002E4B02225A632D4B5B692C4A43F0010317
:1016900053612A4B1B68294A43F0010313603FE062
:1016A000264BDB69254A23F44073D361234BDB6966
:1016B0007A68927812031146204A0B43D3611F4B7C
:1016C000DB691E4A43F40063D3611C4B1B687A68D4
:1016D000D27812011146194A0B431360174B1B684D
:1016E000164A43F080031360144B1B6A134A43F4F9
:1016F00080531362114A3B88D362104A7B889362FD
:101700000E4B02225A630D4B5B690C4A43F00103F6
:1017100053610A4B1B68094A43F00103136000BF81
:1017200005E000BF04E000BF02E000BF00E000BF32
:1017300000BF0C37BD4680BC704700BF000C0040A6
:1017400080B483B000AF0346FB800B467B71134629
:101750003B717B79023B032B00F2988001A252F887
:1017600023F000BF75170008BF170008FF17000817
:101770003F1800083B79013B032B00F2808001A257
:1017800052F823F0951700089F170008A9170008C2
:10179000B31700084FF08042FB8853630EE04FF010
:1017A0008042FB88936309E04FF08042FB88D3635B
:1017B00004E04FF08042FB88136400BF5FE03B7998
:1017C000013B032B5DD801A252F823F0DD1700087E
:1017D000E5170008ED170008F51700082E4AFB88EA
:1017E00053630BE02C4AFB88936307E02A4AFB888B
:1017F000D36303E0284AFB88136400BF41E03B79D0
:10180000013B032B3FD801A252F823F01D1800081A
:10181000251800082D180008351800081F4AFB88F5
:1018200053630BE01D4AFB88936307E01B4AFB8868
:10183000D36303E0194AFB88136400BF23E03B79BC
:10184000013B032B21D801A252F823F05D180008B8
:10185000651800086D18000875180008104AFB8804
:1018600053630BE00E4AFB88936307E00C4AFB8846
:10187000D36303E00A4AFB88136400BF05E000BF9E
:1018800004E000BF02E000BF00E000BF00BF0C3773
:10189000BD4680BC704700BF000400400008004007
:1018A000000C004080B485B000AF78600123FB736A
:1018B0007B68002B02D10023FB7367E07B681B78F9
:1018C000012B1DD1344B1B68334A23F48033136042
:1018D000314B1B687A685278120411462E4A0B432A
:1018E00013602D4B5B682C4A23F0030353602A4B93
:1018F0005B687A6852791146274A0B43536045E08A
:101900007B681B78022B1CD1234B1B68224A23F0D7
:1019100001031360204B1B687A68D27811461E4A77
:101920000B4313601C4B5B681B4A23F0030353609B
:10193000194B5B687A6852791146174A0B4353601A
:1019400024E07B681B78042B0ED1134B1B6A124AD0
:1019500023F001031362104B1B6A7A6892781146D8
:101960000D4A0B43136211E07B681B78082B0DD1E5
:10197000094B5B6A084A23F001035362064B5B6A1A
:101980007A6812791146044A0B435362FB7B18466E
:101990001437BD4680BC70470010024080B485B04B
:1019A00000AF78600123FB737B68002B02D100231A
:1019B000FB732CE0194B5B68184A23F0F00353606B
:1019C000164B5B687A68127812011146134A0B4372
:1019D0005360124B5B68114A23F4E06353600F4B72
:1019E0005B687A685278120211460C4A0B435360C6
:1019F0000A4B5B68094A23F460535360074B5B68EA
:101A00007A689278D2021146044A0B435360FB7BFA
:101A100018461437BD4680BC704700BF0010024016
:101A200080B485B000AF78600123FB737B685B688E
:101A30001F2B02D90023FB732EE07B681B78022B3F
:101A40001ED0022B28DC002B02D0012B0CD023E06F
:101A5000144B5B697A685268012101FA02F211465F
:101A6000104A0B43536117E00E4B9B697A6852682A
:101A7000012101FA02F211460A4A0B4393610BE07D
:101A8000084BDB697A685268012101FA02F21146BB
:101A9000044A0B43D36100BFFB7B18461437BD4695
:101AA00080BC70470010024080B483B000AF786003
:101AB0007B689B79023B032B56D801A252F823F096
:101AC000D11A0008FD1A0008211B0008451B000858
:101AD0004FF080431B687A681278120111464FF06C
:101AE00080420B4313607B685A884FF080439A62B0
:101AF0007B689A884FF08043DA6235E01D4B1B68A3
:101B00007A681278120111461A4A0B4313607B68F7
:101B10005A88184B9A627B689A88164BDA6223E0DF
:101B2000154B1B687A68127812011146124A0B4352
:101B300013607B685A88104B9A627B689A880E4BB8
:101B4000DA6211E00D4B1B687A68127812011146B7
:101B50000A4A0B4313607B685A88084B9A627B6879
:101B60009A88064BDA6200BF00BF0C37BD4680BCC6
:101B7000704700BF0004004000080040000C004017
:101B800080B483B000AF0346FB71FB79023B032BAB
:101B900028D801A252F823F0A91B0008BB1B00089B
:101BA000C91B0008D71B00084FF080431B684FF08B
:101BB000804243F00103136014E00D4B1B680C4A94
:101BC00043F0010313600DE00A4B1B68094A43F020
:101BD0000103136006E0084B1B68074A43F001034A
:101BE000136000BF00BF0C37BD4680BC704700BF0C
:101BF0000004004000080040000C004080B400AF2A
:101C00004FF0804300225A6200BFBD4680BC70473F
:101C100080B483B000AF0346FB71FB79023B032B1A
:101C200028D801A252F823F0391C00084B1C0008E8
:101C3000591C0008671C00084FF080431B684FF0D8
:101C4000804223F00103136014E00D4B1B680C4A23
:101C500023F0010313600DE00A4B1B68094A23F0CF
:101C60000103136006E0084B1B68074A23F00103D9
:101C7000136000BF00BF0C37BD4680BC704700BF7B
:101C80000004004000080040000C004080B483B015
:101C900000AF78607B685B78012B1DD14FF08043EB
:101CA0009B697A68127811464FF080420B4393612A
:101CB0004FF080431B6A7A689278520011464FF0C9
:101CC00080420B4313624FF080431B6A4FF0804207
:101CD00043F00103136266E07B685B78022B1ED140
:101CE0004FF080439B697A681278120211464FF0D8
:101CF00080420B4393614FF080431B6A4FF0804258
:101D000043F0100313624FF080431B6A7A689278A5
:101D1000520111464FF080420B43136243E07B684F
:101D20005B78032B1DD14FF08043DB697A68127812
:101D300011464FF080420B43D3614FF080431B6A42
:101D40007A689278520211464FF080420B43136238
:101D50004FF080431B6A4FF0804243F4807313625C
:101D600021E07B685B78032B1DD14FF08043DB695A
:101D70007A681278120211464FF080420B43D36109
:101D80004FF080431B6A7A689278520311464FF0F5
:101D900080420B4313624FF080431B6A4FF0804236
:101DA00043F4805313627B685A78034B1A7000BF68
:101DB0000C37BD4680BC70478C00002080B483B0D7
:101DC00000AF03460A46FB711346BB71BB79012B7A
:101DD00012D14FF080431B6A4FF0804223F0020380
:101DE00013624FF080431B6AFA79520011464FF09C
:101DF00080420B43136240E0BB79022B12D14FF0BB
:101E000080431B6A4FF0804223F0200313624FF09F
:101E100080431B6AFA79520111464FF080420B430E
:101E200013622AE0BB79032B12D14FF080431B6A67
:101E30004FF0804223F4007313624FF080431B6A1B
:101E4000FA79520211464FF080420B43136214E0BC
:101E5000BB79042B11D14FF080431B6A4FF08042B5
:101E600023F4005313624FF080431B6AFA79520344
:101E700011464FF080420B43136200BF0C37BD4642
:101E800080BC704780B485B000AF0346FB7100236F
:101E9000FB81FB79013B032B1ED801A252F823F0F2
:101EA000B11E0008BB1E0008C51E0008CF1E00089A
:101EB0004FF080435B6BFB810EE04FF080439B6BE8
:101EC000FB8109E04FF08043DB6BFB8104E04FF0C6
:101ED00080431B6CFB8100BFFB8918461437BD464D
:101EE00080BC704780B485B000AF0346FB7100230F
:101EF000FB81FB79013B032B2ED801A252F823F082
:101F0000111F0008231F0008351F0008471F000885
:101F10004FF080431B695B089BB203F00103FB8118
:101F20001AE04FF080431B699B089BB203F001034A
:101F3000FB8111E04FF080431B69DB089BB203F08B
:101F40000103FB8108E04FF080431B691B099BB232
:101F500003F00103FB8100BFFB89DBB21846143795
:101F6000BD4680BC704700BF80B400AF4FF08043D7
:101F70001B694FF0804223F00103136100BFBD468F
:101F800080BC704780B400AF4FF080435B694FF076
:101F9000804243F00103536100BFBD4680BC7047DF
:101FA00080B500AF044B1B68002B02D0024B1B68AE
:101FB000984700BF80BD00BF8800002080B582B078
:101FC00000AF0023FB804F48FFF76CFC4E48FFF743
:101FD000E5FC4E48FFF724FD4D48FFF721FD4D4835
:101FE000FFF71EFD4C48FFF71BFD4C48FFF718FD9F
:101FF0004B48FEF7C3FB4B48FEF73AFD4A48FEF755
:1020000037FD4A48FEF734FD4948FEF731FD49489F
:10201000FEF72EFD4848FEF72BFDFEF783FC474BED
:102020001A68134664224FF47A711846FEF736FC9C
:10203000434B1A68134664224FF47A711846FEF730
:102040002DFCFEF7F9FC0346FB80FB88012B0CD826
:102050000123012203210020FEF732FC012301228B
:1020600004210020FEF72CFC47E0FB88012B0FD950
:10207000FB88032B0CD80123012203211420FEF737
:102080001FFC0123012204211420FEF719FC34E077
:10209000FB88032B0FD9FB88052B0CD801230122C9
:1020A00003213220FEF70CFC0123012204213220FF
:1020B000FEF706FC21E0FB88052B0FD9FB88062BD9
:1020C0000CD80123012203215020FEF7F9FB012344
:1020D000012204215020FEF7F3FB0EE0FB88062BC3
:1020E0000BD90123012203216420FEF7E9FB012320
:1020F000012204216420FEF7E3FB1248FEF77AFB7D
:102100009FE700BF2C00002090000020340000203A
:102110003C000020440000204C000020540000201F
:102120005C000020000000200400002008000020C7
:1021300010000020140000200C00002018000020D7
:102140001C00002040420F000D488546AFF3008080
:102150000C480D490D4A002302E0D458C450043302
:10216000C4188C42F9D30A4A0A4C002301E01360D8
:102170000432A242FBD300F011F8FFF71FFFFEE785
:10218000005000200000002064000020042200080D
:102190006400002094000020FEE7000070B50026D7
:1021A0000C4D0D4C641BA410A64209D100F01AF886
:1021B00000260A4D0A4C641BA410A64205D170BD2E
:1021C00055F8043B98470136EEE755F8043B98472D
:1021D0000136F2E7FC210008FC210008FC21000880
:1021E00000220008F8B500BFF8BC08BC9E46704746
:0C21F000F8B500BFF8BC08BC9E46704764
:0421FC005501000881
:0422000031010008A0
:1022040000020000010A0000060A0000160A00008D
:102214000702000008020000030106000401060092
:1022240000000F00FFFF0200010200000200000195
:102234000000000001000000020000000100000096
:102244000300000002000000000000000200000083
:102254000100000002000000020000000000000075
:042264000F00000067
:040000050800214985
:00000001FF
